:020000040800F2
:100000002804002049010008CD0600088D050008DD
:10001000C9060008BD010008810A000800000000B0
:10002000000000000000000000000000E1070008E0
:10003000C1010008000000005F010008ED08000891
:100040006301000863010008630100086301000800
:1000500063010008630100086301000863010008F0
:1000600063010008630100086301000863010008E0
:1000700063010008630100086301000863010008D0
:1000800063010008630100086301000863010008C0
:1000900063010008630100086301000863010008B0
:1000A00063010008630100086301000863010008A0
:1000B0006301000863010008630100086301000890
:1000C0006301000863010008630100086301000880
:1000D0006301000863010008630100086301000870
:1000E0006301000863010008630100086301000860
:1000F0006301000863010008630100086301000850
:10010000630100086301000863010008630100083F
:10011000630100086301000863010008630100082F
:10012000630100086301000863010008630100081F
:10013000DFF810D000F030F800480047A90C0008A4
:10014000AFF3008028040020064880470648004797
:10015000FEE7FEE7FEE7FEE7FEE7FEE7FEE7FEE777
:10016000FEE7FEE70D0900083101000830B50B4637
:10017000014600202022012409E021FA02F59D42D7
:1001800005D303FA02F5491B04FA02F52844151EAB
:10019000A2F10102F1DC30BD064C074D06E0E0683B
:1001A00040F0010394E8070098471034AC42F6D3BE
:1001B000FFF7C2FF540D0008740D000800BFFEE7F2
:1001C000704700BF00BF00BF00BF00BF00BF00BF3F
:1001D00000BF00BF00BF00BF00BF00BF00BF00BF27
:1001E00000BF00BF00BF00BF00BF00BF00BF00BF17
:1001F00000BF00BF00BF00BF00BF00BF00BF00BF07
:1002000000BF00BF00BF00BF00BF00BF00BF00BFF6
:1002100000BF00BF00BF00BF00BF00BF00BF00BFE6
:1002200000BF00BF00BF00BF00BF00BF00BF00BFD6
:1002300000BF00BF00BF00BF00BF00BF00BF00BFC6
:1002400000BF00BF00BF00BF00BF00BF00BF00BFB6
:1002500000BF70470021044A116000BF02490968CD
:100260008842FBD8704700000000002000B501E084
:10027000FFF7A7FF011EA0F10100F9D100BD2DE994
:10028000F04102460025002600200023002400271C
:1002900091F803C00CF00F0591F803C00CF0100C9E
:1002A000BCF1000F03D091F802C04CEA050591F8AB
:1002B00000C0BCF1000F31D0146800202BE04FF0DB
:1002C000010C0CFA00F3B1F800C00CEA03069E42E0
:1002D00020D183004FF00F0C0CFA03F7BC4305FA52
:1002E00003FC4CEA040491F803C0BCF1280F06D1CA
:1002F0004FF0010C0CFA00FCC2F814C00AE091F8AF
:1003000003C0BCF1480F05D14FF0010C0CFA00FC02
:10031000C2F810C0401C0828D1D31460B1F800C046
:10032000BCF1FF0F34DD546800202EE000F1080C12
:100330004FF0010808FA0CF3B1F800C00CEA03060C
:100340009E4221D183004FF00F0C0CFA03F7BC43FF
:1003500005FA03FC4CEA040491F803C0BCF1280F31
:1003600005D100F1080C08FA0CF8C2F8148091F8D5
:1003700003C0BCF1480F07D100F1080C4FF0010891
:1003800008FA0CF8C2F81080401C0828CED354603C
:10039000BDE8F081F0B50A460023002400210025C5
:1003A00000F00046B6F1004F02D11D4EF16901E0A8
:1003B0001B4E7168C0F3034583B200F44016B6F5D6
:1003C000401F08D121F07061154E766826F07066E6
:1003D000134F7E6012E000F48016B6F5801F06D140
:1003E000032606FA05F4A14341F0706106E0460DCC
:1003F000360103FA06F6B14341F0706122B1460DB1
:10040000360103FA06F6314300F00046B6F1004F1C
:1004100002D1034EF16101E0014E7160F0BD0000B8
:10042000000001400246002093680B400BB1012000
:1004300000E0002070474161704701617047000093
:1004400070B500F045F94FF400613D48FFF7F5FF46
:100450004FF400613A48FFF7EEFF1420FFF7FAFE71
:100460004FF400613648FFF7E8FF00F091F800BF55
:100470004FF400613248FFF7D5FF0128F8D000BFE4
:100480004FF400612E48FFF7CDFF0028F8D000247C
:1004900032E000252CE000BF4FF400612848FFF750
:1004A000C1FF0128F8D000BF4FF400612448FFF7D6
:1004B000B9FF0028F8D02320FFF7D8FE4FF40061E1
:1004C0001F48FFF7AFFF01280AD11E48005D400614
:1004D000000E1C4908550846005D401C085505E003
:1004E0001848005D4006000E16490855681CC5B244
:1004F000082DD0DB601CC4B2052CCADB1148007883
:100500001049497808440F49897808440D49C97849
:1005100008440C49097988420DD10BA000F0B2FAC9
:10052000084801780DA000F0ADFA064881780EA0C9
:1005300000F0A8FA02E00FA000F0A4FA70BD0000DD
:100540000020014008000020C4E3B5C4CAFDBEDDA0
:10055000C3BBD3D0CECACCE20D0A0000CAAAB6C82B
:100560003D3D25640D0A0000CEC2B6C83D3D256460
:100570000D0A0000C4E3BDD3CADCB5C4CAFDBEDDAC
:10058000B3F6CFD6B4EDCEF30D0A000000BFFEE700
:100590000548406820F470400349486008464068B8
:1005A00040F48040486070470020014008B50121B8
:1005B000102000F09BF810208DF803000120ADF80A
:1005C00000008DF8020069460148FFF758FE08BD9B
:1005D000001001400348806940F48070014988613F
:1005E000704700000010024008B50121042000F00F
:1005F0007DF80121102000F079F804208DF8030027
:100600000120ADF800008DF8020069460548FFF7AB
:1006100036FE7020ADF8000069460348FFF72FFE54
:1006200008BD0000000801400010014008B501218C
:10063000402000F05BF80420ADF8000002208DF8A7
:10064000020010208DF8030069460C48FFF717FEE2
:100650000820ADF8000069460848FFF710FE10209A
:10066000ADF8000069460548FFF709FE2020ADF807
:10067000000069460148FFF702FE08BD001801406E
:1006800008B50121042000F031F84FF4E070ADF816
:10069000000002208DF8020010208DF8030069464A
:1006A0000848FFF7ECFD4FF480710648FFF7C5FEE0
:1006B00080210448FFF7C1FE40210248FFF7BDFE3C
:1006C00008BD00000008014000BFFEE770470000C1
:1006D0000548406820F47040034948600846406877
:1006E00040F48050486070470020014029B1064A1C
:1006F00092690243044B9A6104E0034A926982437F
:10070000014B9A61704700000010024030B5002193
:100710000022002400232D4D6D6805F00C0121B14D
:10072000042905D0082923D105E0294D056022E0E0
:10073000274D05601FE0254D6D6805F47012234DAF
:100740006D6805F48034022505EB92421CB9214DF9
:10075000554305600BE01D4D6D6805F400351DB176
:100760001C4D5543056002E0194D5543056002E0FC
:10077000174D056000BF00BF144D6D6805F0F00116
:100780000909154D6B5C0568DD4045600F4D6D68CE
:1007900005F4E061090A104D6B5C4568DD40856039
:1007A0000A4D6D6805F46051C90A0B4D6B5C4568D4
:1007B000DD40C560054D6D6805F44041890B074D6E
:1007C0006B5CC568B5FBF3F5056130BD00100240F8
:1007D00000127A0000093D000D0000201D000020DD
:1007E0007047000010B5044600BF8021044800F0A7
:1007F000C9F80028F9D02146014800F03DF910BDA4
:100800000038014010B500F001F810BD0CB5002013
:10081000019000903348006840F48030314908600E
:1008200000BF3048006800F4003000900198401C80
:100830000190009818B90198B0F5A06FF1D129483E
:10084000006800F4003010B10120009001E00020A9
:1008500000900098012843D12348006840F0100020
:10086000214908600846006820F003000860084637
:10087000006840F0020008601A4840681949486062
:100880000846406848600846406840F48060486018
:100890000846406820F47C1048600846406840F4F0
:1008A000E81048600846006840F08070086000BFAB
:1008B0000C48006800F000700028F9D00948406832
:1008C00020F00300074948600846406840F00200F5
:1008D000486000BF0348406800F00C000828F9D1C8
:1008E0000CBD0000001002400020024005480068D6
:1008F000401C0449086004480088401C02490880E4
:1009000070470000000000200400002010B51348CC
:10091000006840F00100114908600846406810492D
:1009200008400E494860084600680E4908400B49D7
:1009300008600846006820F4802008600846406887
:1009400020F4FE0048604FF41F008860FFF75AFF54
:100950004FF000600449086010BD00000010024024
:100960000000FFF8FFFFF6FE08ED00E021B18289EC
:1009700042F40052828104E082894DF6FF731A40EE
:100980008281704702460020B1F5007F00D100BF90
:1009900013880B400BB1012000E0002070470000DD
:1009A0002DE9F04786B005460E460024A24600BF5A
:1009B000A1460027B08900B100BF2F462C8A4CF613
:1009C000FF700440F08804432C82AC894EF6F3108B
:1009D0000440B08831890843718908430443AC81DD
:1009E000AC8A4FF6FF400440B0890443AC8201A8B2
:1009F000FFF78CFE1F48874202D1DDF810A001E00E
:100A0000DDF80CA0A88900F4004040B10AEBCA0050
:100A100000EB0A1031684900B0FBF1F807E00AEB7F
:100A2000CA0000EB0A1031688900B0FBF1F86420BD
:100A3000B8FBF0F004012009642101FB1089A889AA
:100A400000F4004040B1322000EBC900B0FBF1F0EF
:100A500000F00700044308E0322000EB0910642195
:100A6000B0FBF1F000F00F0004432C8106B0BDE8AC
:100A7000F087000000380140C1F30802828070470F
:100A800000BFFEE70FB4054B10B503A9044A029856
:100A900000F018F810BC5DF814FB0000190C0008F9
:100AA0002400002002E008C8121F08C1002AFAD161
:100AB00070477047002001E001C1121F002AFBD1DE
:100AC000704700002DE9FF4F89B09B460446002582
:100AD00006E025280BD05A460B999047641C6D1CE4
:100AE00020780028F5D10DB02846BDE8F08F00270A
:100AF000B8460122474900E0074314F8013F203B74
:100B000002FA03F00842F7D120782E2819D114F800
:100B1000010F47F004072A280ED06FF02F0220782B
:100B2000A0F1300109290CD808EB880102EB410142
:100B300000EB0108641CF2E70A98641C50F8048B6F
:100B40000A9020780028CED0642808D0692806D0E2
:100B500075281ED05A460B9990476D1C58E00A998B
:100B60004FF00A0901C90A91002802DA40422D21FA
:100B700002E0390504D52B218DF82010012103E076
:100B8000F90704D02021F7E78A4608AE0DE00021DE
:100B9000FAE70A994FF00A0901C90A91F7E74946AD
:100BA000FFF7E4FA303106F8011D0028F7D1ADEB6C
:100BB000060000F12009780701D44FF00108C8456C
:100BC00002DDA8EB090000E000208046002706E0D7
:100BD00008A85A46C05D0B9990476D1C7F1C57456D
:100BE000F6DB04E030205A460B9990476D1CB8F1B3
:100BF0000001A8F10108F5DC05E016F8010B5A46E2
:100C00000B9990476D1CB9F10001A9F10109F4DCC1
:100C1000641C65E70928010070B504460D46E0B282
:100C2000FFF7E0FD204670BD10B586B004460121F7
:100C30008803FFF75BFD01210420FFF757FD182013
:100C40008DF8170003208DF816004FF40070ADF8F2
:100C5000140005A91248FFF712FB4FF48060ADF8AD
:100C6000140004208DF8170005A90D48FFF707FBB5
:100C700001940020ADF80800ADF80A00ADF80C00B2
:100C80000C20ADF80E000020ADF8100001A90548B9
:100C9000FFF786FE01210348FFF768FE06B010BD8E
:100CA000000801400038014000BF00BF0121084694
:100CB000FFF71CFD01212048FFF76CFB00BF1F4917
:100CC000B1F1807F00D31DE021F07F40401E4FF046
:100CD000E022506150170F22002807DA13071D0E7B
:100CE000174B00F00F04241F1D5503E013071C0EC3
:100CF000144B1C5400BF00204FF0E02290610720ED
:100D0000106100BFFFF792FCFFF76EFCFFF74EFC8F
:100D1000FFF7B6FC4FF46120FFF786FF0AA0FFF74C
:100D2000B1FEFFF757FC05E04FF4FA60FFF792FAC7
:100D3000FFF786FBF8E700000002300040190100D1
:100D400018ED00E000E400E0B3F5CABCBBAFB3C9E6
:100D5000B9A60A00740D0008000000202800000059
:100D6000A40A00089C0D00082800002000040000D0
:100D7000B40A0008000000000000F40100000000B8
:100D8000000000000001020304010203040607083A
:0C0D90000902040608000000000000003A
:0400000508000131BD
:00000001FF
